:020000040000FA
:020000000628D0
:040002000034003492
:04000C0083168601D0
:100010001F30850083128601422086014920860117
:10002000342086013B2001308600272086013428B9
:1000300002308600272086013B28013086002720D9
:100040008601422802308600272086014928303068
:100050008C0040308D0050308E008E0B2D288D0B83
:100060002B288C0B2928080085190B2886010518D8
:1000700018283428080085190B28860105183B2804
:100080001328080085190F28860185182228422880
:10009000080085190F28860105191D284928080020
:02400E00F13F80
:00000001FF
